:020000040800F2
:1000000098070020AD010008D52300083D1C00081A
:1000100000000000000000000000000000000000E0
:100020000000000000000000000000006D26000835
:100030000000000000000000D72300086F26000821
:10004000BF010008BF010008BF010008BF01000890
:10005000BF010008BF010008BF010008BF01000880
:1000600000000000BF010008BF010008BF01000838
:10007000BF010008BF010008BF010008BF01000860
:10008000BF010008BF010008BF010008BF01000850
:1000900000000000BF010008BF010008BF01000808
:1000A000BF010008D9230008BF010008BF010008F4
:1000B000BF010008BF0100080000000000000000B0
:1000C00000F002F800F046F80CA030C808382418F8
:1000D0002D18A246671EAB4654465D46AC4201D180
:1000E00000F038F87E460F3E0FCCB646012633426C
:1000F00000D0FB1AA246AB4633431847402B000002
:10010000602B0000103A02D378C878C1FAD85207A1
:1001100001D330C830C101D504680C6070470000BD
:100120000023002400250026103A01D378C1FBD813
:10013000520700D330C100D50B60704710B5642959
:1001400002D100F09BF810BD002010BD1FB51FBDEF
:1001500010B510BD00F085FA1146FFF7F7FF02F069
:10016000CDFC00F09DFA03B4FFF7F2FF03BC00F0F2
:10017000A3FA000070B505460C46164602E00FCC07
:100180000FC5103E102EFAD2082E02D303CC03C5A1
:10019000083E042E07D301CC01C5361F03E02178A9
:1001A0002970641C6D1C761EF9D270BD074880470B
:1001B00007480047FEE7FEE7FEE7FEE7FEE7FEE74B
:1001C00004480549054A064B70470000D12600083F
:1001D000C100000898010020980700209803002023
:1001E000980300200FB41CB5084B06AA7B4469464F
:1001F0000090059800F009FA04460020694600F0D6
:1002000017FA20461CBC08BC04B018474104000083
:10021000F8B50E460446002020622046E168884773
:10022000002829D0252802D06268A16820E0E16872
:1002300020460027884705001ED028464138192847
:1002400002D80127FF022035324620462760294682
:10025000FFF774FF002808D0012804D0F61DF60827
:10026000F6000836D9E7361DD7E762682846A16848
:100270009047206A401CCFE7206AF8BDF7B50025FB
:1002800075291068009914A611D0C046C0460028F0
:1002900002DA404211A608E0009909688A0701D5F0
:1002A0000FA602E0490704D50EA6012501E0C046CD
:1002B000C046009F0024243704E000F0BEF930312E
:1002C0003955641C0028F8D12B4632462146009847
:1002D00000F03DF9FEBD0000000000002D00000010
:1002E0002B0000002000000030B5441C03E0017822
:1002F000401C00290DD08107F9D10B4BDD0104C84A
:10030000D11A91432940FAD0001B0A0603D0C01E1F
:1003100030BD001B30BD0A0401D0801E30BD090273
:10032000FCD0401E30BD000001010101F8B5042AD7
:100330002CD3830712D00B78491C0370401C521E2B
:1003400083070BD00B78491C0370401C521E830797
:1003500004D00B78491C0370401C521E8B079B0F66
:1003600005D0C91ADF002023DE1B08C90AE0FFF709
:1003700001FFF8BD1D4608C9FD401C46B4402C4392
:1003800010C0121F042AF5D2F308C91A521EF0D465
:100390000B78491C0370401C521EEAD40B78491C90
:1003A0000370401C012AE4D409780170F8BD01E013
:1003B00004C0091F0429FBD28B0701D50280801CD1
:1003C000C90700D00270704700290BD0C30702D0C4
:1003D0000270401C491E022904D3830702D5028003
:1003E000801C891EE3E70022EEE70022DFE70022FF
:1003F00003098B422CD3030A8B4211D300239C4662
:100400004EE003460B433CD4002243088B4231D3D9
:1004100003098B421CD3030A8B4201D394463FE06D
:10042000C3098B4201D3CB01C01A524183098B42CD
:1004300001D38B01C01A524143098B4201D34B01B6
:10044000C01A524103098B4201D30B01C01A524119
:10045000C3088B4201D3CB00C01A524183088B42A0
:1004600001D38B00C01A524143088B4201D34B0089
:10047000C01A5241411A00D20146524110467047FB
:100480005DE0CA0F00D04942031000D34042534000
:1004900000229C4603098B422DD3030A8B4212D3C0
:1004A000FC22890112BA030A8B420CD389019211F2
:1004B0008B4208D3890192118B4204D389013AD02F
:1004C000921100E08909C3098B4201D3CB01C01A04
:1004D000524183098B4201D38B01C01A5241430917
:1004E0008B4201D34B01C01A524103098B4201D305
:1004F0000B01C01A5241C3088B4201D3CB00C01A72
:10050000524183088B4201D38B00C01A5241D9D289
:1005100043088B4201D34B00C01A5241411A00D20A
:100520000146634652415B10104601D34042002B06
:1005300000D54942704763465B1000D3404201B585
:100540000020C046C04602BD704770477047FFB5E7
:1005500004460D4681B0243000902168880604D5F9
:100560001022E0699143216000E00120A84201DDF2
:10057000471B00E000270498A1697A191018081A8F
:10058000A0612078C00602D42046C046C04600269E
:1005900008E003986268A168805D9047206A401C6B
:1005A000761C206204988642F3DB2078C0060AD5C8
:1005B0002046C046C04606E06268A16830209047E9
:1005C000206A401C206238467F1E0028F4DC07E0C9
:1005D00000986268A168405D9047206A401C2062D4
:1005E00028466D1E0028F3DC2046C046C046207811
:1005F000000602D5022005B0F0BD0120FBE7000097
:1006000001694A1C02610878704700B58FB00291F9
:100610000021059105490193794403911146049005
:100620006846FFF7F5FD0FB000BD0000E5FFFFFFD6
:100630000A681070521C0A60704701468008081A48
:1006400002091018020A1018020C1018C0088200C3
:1006500012185200891A01E0401C0A390A29FBD2FB
:100660007047754600F024F8AE46050069465346CB
:10067000C008C000854618B020B5FFF7A1FD60BCDA
:1006800000274908B6460026C0C5C0C5C0C5C0C5BC
:10069000C0C5C0C5C0C5C0C5403D49008D467047F6
:1006A00010B50446C046C0462046FFF75CFD10BDAD
:1006B000004870473401002001491820ABBEFEE716
:1006C000260002007047000010B50A4602A1FFF79D
:1006D00089FDC0B210BD00002564000072B6FEE7BF
:1006E00000B5392833D012DC014620390B0002F066
:1006F000C9F9192C2C2C2C2C2C2C2C2C2C2C2C4BC4
:10070000414D2C2E2E2E2E2E2E2E2E2E2C005528E8
:1007100022D00EDC4C2833D006DC41282ED04328D2
:1007200020D0452811D123E050282BD053280CD1BC
:1007300014E062280ED004DC592811D05F2804D1BF
:100740001AE0642812D06F280ED0122000BD303875
:10075000C0B200BD0A2000BD0B2000BD0C2000BDB2
:100760000D2000BD0E2000BD0F2000BD102000BDDB
:10077000112000BD132000BD142000BD152000BDB8
:10078000162000BD172000BD182000BD192000BD97
:10079000F8B50024024620325179022903D0042101
:1007A000C16301242DE001680B680E25AB430B608B
:1007B00001680B685B085B000B60416C0B68FF25F0
:1007C0000135AB430B6010494D68066C1C231E407D
:1007D00001231F46B7403D434D60816CC56C4D60A1
:1007E000016D002906D00E681D02AE430E60416DFA
:1007F000856D4D60537100211171816B002900D00E
:1008000088472046F8BD000000000240F0B50023F4
:1008100003249AE02A4601259D402A407ED00E7985
:10082000B607B60F012E01D0022E16D186682746D4
:10083000B4465E00B646B7406646BE43B446CF688F
:100840007646B7406646374387604668AE430D79C3
:10085000ED06ED0F9D40354345600D79ED43AD0745
:1008600008D0C5685F002646BE40B5438E68BE40CE
:100870002E43C6600D79AD07AD0F022D0ED1DD08F8
:10088000AD002D18AC462D6A5E07F60E0F27B74057
:10089000BD430F69B7402F4365462F6205685F006F
:1008A0002646BE40B5430E79B607B60FBE402E436E
:1008B00006604D68AD03AD0F46D09E08264DB600CC
:1008C0007519AC462D6E9E07F60E0F27B740BD4337
:1008D00005273F07B84201D100270FE01F4FB8425C
:1008E00001D101270AE01E4FB84201D1022705E0DD
:1008F0001C4FB84201D1032700E00527B7402F4322
:10090000154D664637662D684E689543F60200D54C
:100910001543114F3D607D68954300E014E04E683B
:10092000B60200D515437D600B4D80356E684F686B
:100930009643BF0300D516436E602E684F689643FA
:10094000FF0300D516432E605B1C0A681546DA408B
:1009500000D05FE7F0BD0000001802400004005026
:1009600000080050000C0050002A01D0816170473F
:1009700081627047014880687047000000000020D5
:100980000248816802788918816070470000002061
:1009900010B5084800240168821511430160032046
:1009A00000F00AF8002801D0012401E000F028F846
:1009B000204610BD0020024070B50F4E0024317853
:1009C0000546002915D07D20C000FFF710FD014627
:1009D0000A480068FFF70BFD00F056FE002808D11A
:1009E000042D06D200222946401E00F02BF8756027
:1009F00000E00124204670BD000000200C00002013
:100A000008B50948016801221143016000681040DF
:100A1000009005484038C26B01040A43C263C06BB2
:100A20000840009008BD000040100240002805DB8F
:100A3000C106C90E012088400149086070470000C6
:100A400000E100E010B502F02BF810BD10B50F4C1E
:100A5000216803225202914301432160C11FFF39E3
:100A6000FA390ED10A480621006848430949FFF7C0
:100A7000BEFC401C02E0002805D0401E616949050B
:100A8000F9D4002010BD032010BD0000007000400C
:100A90000C00002040420F00F8B504460068002614
:100AA000664D800358D5654800274038C06BC000AC
:100AB00009D462484038C26B01040A43C263C06B68
:100AC0000840012700905E480168821511430160CB
:100AD000FFF750FF009005E0FFF74CFF0099401A28
:100AE000022825D856480068C005F5D5E8690321D5
:100AF000090208400FD0616A81420CD0E8690321E5
:100B00000902EA698843012109040A43EA61EA69A2
:100B10008A43EA61E861C0070FD0FFF72BFF00901E
:100B200008E0FFF727FF0099411A4648814201D9A2
:100B3000032609E0E8698007F3D5E8690321090283
:100B40008843616A0843E861002F05D03B4840387C
:100B5000C26B01048A43C2632078C00705D068696C
:100B6000616880088000084368612078C00606D567
:100B70006869032189028843A16808436861208865
:100B8000800506D5686903218904884361690843A3
:100B900068612088400506D56869032109058843F6
:100BA000A169084368612078800606D56869032139
:100BB00009038843E168084368612088400411D52F
:100BC0006869E16980008008084368610121E06983
:100BD0008907884206D119484038C16801221204A9
:100BE0001143C1602068800210D568690121890520
:100BF000226A884310436861206A884206D10F4800
:100C00004038C168012212061143C16020880005E6
:100C100012D5686903218903884321690843686103
:100C2000012120698903884206D104484038C168FF
:100C3000012212041143C1603046F8BD4010024049
:100C40000070004088130000F8B50F46060043D03E
:100C50004D4D28684007400FB84213D22868C0089D
:100C6000C00038432860FFF785FE044605E0FFF723
:100C700081FE011B4548814261D828684007400F2A
:100C8000B842F4D13068424C81070DD5400704D5F5
:100C9000A068072109030843A060A0680F2109028A
:100CA0008843B1680843A0603078C00732D07068CC
:100CB00001280AD002280BD000280FD03449403137
:100CC00003280ED0C969890704E02168890301E07F
:100CD00021688901002906DB0120F8BD216849054A
:100CE000F8E7096AEFE7A168C908C9000143A160F4
:100CF000FFF740FE009006E0FFF73CFE0099411A26
:100D0000224881421BD8A068382108407168C90078
:100D10008842F1D128684007400FB84217D91A48D5
:100D20000168C908C90039430160FFF723FE054681
:100D300007E0FFF71FFE411B1448814201D9032041
:100D4000F8BD114800684007400FB842F1D1307833
:100D5000400706D5A068072109038843F1680843C6
:100D6000A06000F01DF8A1683C2289091140094AE1
:100D7000515CC906C90EC8400749086007480068A9
:100D8000FFF71AFEF8BD00000020024088130000A3
:100D900000100240B82B00080C00002004000020C6
:100DA00010B5204CA068204A8006400F16D0A068DD
:100DB0008006410F501001290FD0A1688906490F04
:100DC000022912D0A0688006400F042823D0A06812
:100DD0008006400F032821D0002010BD206801218B
:100DE0008004400F8140104612E0E1688B07E16803
:100DF0009B0F4906490F491C032B00D01046FFF7F3
:100E0000F6FAE1684904490E4843E168490F491C74
:100E1000FFF7EDFA10BD0120C00310BD7D200002D8
:100E200010BD0000001002400024F400F8B50400DA
:100E30007ED020783827C007ED4D002846D0A8681E
:100E4000E96838408907890F102802D008280BD09C
:100E500001E0032908D001206268000482420AD11F
:100E600029680143296015E0286880032ED5606851
:100E70000028DDD02AE0052301211B0489049A42C1
:100E80002A6802D10A432A60EAE782432A60286876
:100E900088432860606800280CD0FFF76BFD064689
:100EA00004E0FFF767FD801B642873D8286880037F
:100EB000F7D50BE0FFF75EFD064604E0FFF75AFDAD
:100EC000801B6428F1D828688003F7D42078800735
:100ED00069D5A868E96838408A070721920FC902D6
:100EE000102802D0002813D001E0022A10D0E068B8
:100EF000002846D02868884321690843286028686C
:100F0000FF21013108432860FFF734FD06462CE03D
:100F10002A68520502D5E268002A89D06A687F23D0
:100F20001B029A4363691B021A436A60002800E0AF
:100F30008DE00ED12868884321690843286028681D
:100F400001218004400F8140AA48FFF750FAAA49C6
:100F50000860AA480068FFF72FFD002877D122E03B
:100F6000FFF708FD801B02289FD828684005F7D5A9
:100F700068687F2109028843616909020843686043
:100F800011E02968FF20013081432960FFF7F2FC5E
:100F9000064605E098E0FFF7EDFC801B022884D8A8
:100FA00028684005F7D42078954E00072ED5A8680C
:100FB0008006400F03280AD0A0690028306A16D0A6
:100FC000012108433062FFF7D5FC07460BE0306A89
:100FD00080071BD5A06900289FD017E0FFF7CAFC47
:100FE000C01B022870D8306A8007F7D50EE0400891
:100FF00040003062FFF7BEFC074604E0FFF7BAFC92
:10100000C01B022860D8306A8007F7D420784007D8
:101010006CD5A86800278006400F042818D0E86B1C
:10102000C00008D4E96B012000070143E963E96BC4
:1010300001400127009173480168C90519D401686E
:10104000821511430160FFF795FC00900DE083E0ED
:10105000F06980074AD5A06800287DD046E0FFF7F8
:1010600089FC0099401A02282ED866480068C005FD
:10107000F5D5A168012910D004200529F16911D006
:1010800049084900F161F1698143F161A0680028D4
:1010900016D0FFF76FFC00900EE0F06901210843C5
:1010A000F061F3E70143F161F7E7FFF763FC0099B3
:1010B000411A5548814267D8F0698007F5D50EE09E
:1010C000FFF758FC009007E05EE0FFF753FC009943
:1010D000411A4D48814257D8F0698007F5D4002F56
:1010E00004D0E86B012109078843E863E069002820
:1010F0007BD0A9688906490F02294FD00126360600
:101100000228286805D0B0432860FFF733FC044666
:101110003CE0B0432860FFF72DFC074604E0FFF7F2
:1011200029FCC01B02282FD828688001F7D4616AE7
:10113000206AA26A0843E16A120211430843216B44
:101140000843616B0843E968304A11400843E8608E
:1011500028683043286000E045E0E868012109077D
:101160000843E860FFF706FC044604E0FFF702FCD2
:10117000001B022808D828688001F7D535E0FFF762
:10118000F9FB001B022801D90320F8BD2868800163
:10119000F5D4E8681E490840E86026E00128F4D04C
:1011A000E868226A8107890F91421CD17021626A26
:1011B0000140914217D17F21A26A09020140120227
:1011C000914210D11F214904E26A014091420AD1A3
:1011D00007214906226B0140914204D1400F616B07
:1011E0004007884201D00120F8BD0020F8BD000072
:1011F000001002400024F4000C0000200400002035
:101200004010024000700040881300008C80C11123
:10121000FCFFFEEE70470000F8B5016804464A681E
:101220008868C043430606D5C30704D1D3435B0691
:1012300001D4E16C05E0830706D4D3431B0603D435
:10124000216D20468847F8BD830603D5430601D5A6
:10125000C305F8D4D3439B06F5D423464506403353
:10126000002D09DB5D7F032D48D0256E0426354314
:101270002566CD688D680095860601274025002EDD
:1012800007DB266E3E4326668E6800960E68AE43E8
:101290000E60C00506D4206E082108432066206831
:1012A00080680090206E0028CDD020684168E0263C
:1012B000B14341605F77900701D4D00722D0206806
:1012C0004168890889004160A06D104E002808D04F
:1012D0008663A06DFFF75CFA002802D0206E2843D9
:1012E0002066606D0028AED08663606DFFF750FA0F
:1012F0000028A8D0206E28432066F8BDC8688868FA
:101300000090F8BD2046FFF785FFF8BD392400089E
:10131000F8B504000CD0606A002500280AD02561C9
:10132000656126464036A562707F002808D00BE034
:101330000120F8BD6168C81FFD38F2D0E561F0E713
:101340003577204600F05CF8022272772068016849
:101350004023994301600723E1681B02994201D9A8
:10136000002001E0012000030F273F02B94202D014
:10137000994200D0A562FF236168053319402127F7
:10138000A368BF023B40194323691340227D1943E0
:10139000D207D20F11430123A2695B021A40114305
:1013A000E26938231A401143226A80231A4011430C
:1013B000A26A9B011A40114322681160A1690422AC
:1013C000090C1140626A10231A401143626B082312
:1013D0001A4011430F23E2681B021A4011430122F5
:1013E000120310400143206841602068C169521017
:1013F0009143C1612566012070770020F8BD00008F
:1014000010B586B0044614216846FEF7EEFF164973
:101410002068884225D11548026881140A43026079
:1014200000680840059011484038416B0122114383
:101430004163406B69461040059082200090022075
:101440000190002002900390049005200007FFF710
:10145000DDF9002211461920FFF7F4FA1920FFF7F1
:10146000E5FA06B010BD0000003001404010024017
:10147000FFB5054604464035287F002781B0164653
:10148000012809D001202877FFF774FA0090687FBF
:10149000012804D0022795E0022005B0F0BD029893
:1014A000002872D0002E70D00320687700202066BC
:1014B0000299A163A687E6872064A880E88020655A
:1014C000E0640122A068D2034021904208D1206844
:1014D00002688A430260206802680B021A430260B5
:1014E00020680268520602D402680A43026007219B
:1014F000E06809028842606826D9002801D0012EE0
:101500001ED1A06B21680088C86006E02068816851
:10151000890709D5A16B0988C160A06B801CA063F5
:10152000E08F401EE0870BE0FFF724FA0099411A94
:101530000498814202D3401C02D039E0002837D001
:10154000E08F0028E2D126E0002801D0012E1FD133
:10155000A06B21680078087306E02068816889071D
:1015600009D5A16B09780173A06B401CA063E08FC3
:10157000401EE0870CE0FFF7FDF90099411A04983E
:10158000814203D3401C03D012E01AE000280FD0A0
:10159000E08F0028E1D12046009A049900F055FF21
:1015A000002801D020202066A068002802D005E095
:1015B000032707E02068C16880680090206E00283B
:1015C00000D001270120687700202877384664E79B
:1015D000F0B5034640331C7F0025012C0BD00124BD
:1015E0001C770024002908D0002A06D05E7F012E37
:1015F00005D0022531E00220F0BD01252DE00326B3
:101600005E77046681638287C28704649C80DC8085
:10161000C4640722C1681202914201D9104900E056
:101620001049016501268268F6034021B24208D1C3
:10163000026816688E431660026816680F023E4301
:10164000166002685668A0273E435660006802682C
:10165000520602D402680A4302601C772846F0BD95
:1016600097240008B9240008054910B5884205D11F
:101670000121002289030348FFF776F910BD00001D
:101680001400002000080050094910B5401E88428F
:1016900001D9012010BD074C60610321081F01F032
:1016A000FFF90020A06107202061002010BD00008C
:1016B000FFFFFF0000E000E070B5034620331A7F13
:1016C000012A4BD001221A770325CA682D02AA43AA
:1016D0008D6800682A430125AD02AA434D680024A5
:1016E0002A430125ED02AA430D682A4301252D0353
:1016F000AA430D692A4301256D03AA434D692A4374
:101700000125AD03AA430D6B2A430F252D04AA43DF
:101710000D8B2D042A43124DA84204D10126360711
:10172000B243CE693243A84214D10F252D05AA43F6
:101730000D8D2D052A4301252D06AA430D6A2A4346
:1017400001256D06AA434D6AC96A2A4301256D0722
:10175000AA430A4342641C77002070BD022070BD7A
:10176000002C0140F0B5034620331A7F012A28D00F
:1017700001221A7702225A7704686268A568124F1C
:10178000BC4205D116460F22120596434A683243E1
:101790007026B2430E68164366600068B84206D0F1
:1017A00001229207904202D0084A904204D180223E
:1017B0008968954329438160012058770020187774
:1017C000F0BD0220F0BD0000002C014000040040EC
:1017D00070B5040005D025462035687F002802D06A
:1017E00006E0012070BD00202877204600F016F8A2
:1017F00002206877211D206800F06CFF0122403430
:101800002272AA77EA7722706270A270E270227167
:101810006271A271E2716A77002070BD10B58CB060
:10182000044628216846FEF7E0FD134920688842F7
:1018300013D1012040050090002008906846FFF772
:101840002BF9002801D0FEF749FF0C480268C114AB
:101850000A430260006808400BE0012189078842C2
:1018600008D106484038C16B01221143C163C06BE7
:1018700010400A900CB010BD002C014040100240F6
:10188000014620314A7F012A01D0012070470222FF
:101890004A7700680B490122884205D091078842A7
:1018A00002D00949884207D18168084B19400629AE
:1018B00005D0DB1F994202D001681143016000206E
:1018C00070470000002C01400004004007000100A8
:1018D000F8B5054604462035287F0026012817D094
:1018E00001272F7702206877226890682F4B1840D5
:1018F000FF231B02984390600868502838D00EDC04
:1019000020284FD006DC00284CD010281ED149E0FA
:101910000220F8BD302845D0402817D13AE0602891
:101920002ED0702818D001221203801A0FD09042B6
:101930000CD1CB684A688968206800F01AFF2068DB
:101940008168012292031143816000E001266F77D4
:10195000002028773046F8BDCB684A68896820683F
:1019600000F007FF21688868772210438860EEE75F
:10197000CA684968206801F061F85021206806E0D3
:10198000CA684968206801F06AF86021206800F0A0
:10199000FBFEDCE7CA684968206801F04FF8402187
:1019A0002068F4E7226801461046F0E788FFCEFF82
:1019B00010B586B0044614216846FEF716FD0D49A1
:1019C0002068884214D10C48416B012211434163C5
:1019D000406B022110400590100200900020029000
:1019E000039001910491052069460007FEF70EFF60
:1019F00006B010BD002C014000100240F8B50446AE
:101A00000020264620360090307F0D4601280CD05D
:101A10000120082730770C2A48D008DC002A10D093
:101A2000042A1ED0082A06D130E00220F8BD102A70
:101A300052D0142A60D00120009000203077009806
:101A4000F8BD206800F0AAFE2068816939438161F1
:101A500020688169042291438161206881692A6933
:101A600011E0206800F0D8FE206881690122D202CE
:101A7000114381612068816952109143816120681E
:101A800081692A69120211438161D6E7206800F05A
:101A900001FF2068C1693943C1612068C16904221E
:101AA0009143C1612068C1692A6912E0206800F091
:101AB0002FFF2068C1690122D2021143C161206851
:101AC000C269012189028A43C2612068C1692A6909
:101AD00012021143C161B0E7206800F04FFF206897
:101AE000416D394341652068426D04218A43426556
:101AF0002068416D2A6912E0206800F06DFF2068BF
:101B0000416D0122D202114341652068426D0121DD
:101B100089028A4342652068416D2A691202114395
:101B200041658AE770B5040005D025462035687FF9
:101B3000002802D006E0012070BD00202877204652
:101B400000F016F802206877211D206800F0C2FD21
:101B5000012240342272AA77EA7722706270A27062
:101B6000E27022716271A271E2716A77002070BD29
:101B70007047000010B504460223203000290ED023
:101B8000042911D020464030082912D00C2915D044
:101B9000102918D0C278012A1AD0012010BD827FE6
:101BA000012AFAD1837714E0C27F012AF5D1C377E5
:101BB0000FE00278012AF0D103700AE04278012A8E
:101BC000EBD1437005E08278012AE6D1837000E012
:101BD000C3700122206800F0BFFD134920688842CD
:101BE00005D0124A904202D0114A904204D1426C70
:101BF0000123DB031A43426420680122884205D096
:101C00009107884202D00B49884207D181680A4B6C
:101C10001940062905D0DB1F994202D00168114303
:101C20000160002010BD0000002C01400044014074
:101C3000004801400004004007000100FEE70000EA
:101C4000F8B5124E0546002280213046FEF78CFE84
:101C5000002405273F07280601D4002200E00122C6
:101C600010213846FEF780FE012280213046FEF723
:101C70007BFE002280213046FEF776FE6806641C5B
:101C8000050EE4B2082CE6D3F8BD000000040050B5
:101C900010B505242407002240212046FEF764FEEB
:101CA000052000F07DFF012240212046FEF75CFE6A
:101CB000002240212046FEF757FE10BD10B501203E
:101CC00000F010FF022000F05DFF10BD70B501268E
:101CD0000D4C0546B603002231462046FEF744FE71
:101CE0000A23012209490A48FFF7C2FB01223146B3
:101CF0002046FEF739FE0C2229460548FFF768FC0E
:101D000020694004FCD470BD00080050F82B000886
:101D10001400002010B5282000F034FF00F028F84F
:101D2000032000F0E7F9052000F02CFF032000F06D
:101D3000E1F9962000F034FF032000F0DBF90220E7
:101D400000F0D8F9282000F0CDFE282000F028FF70
:101D50000E2000F0C7FE282000F022FFFFF7AEFFA4
:101D6000062000F0BFFE282000F01AFF10BD000082
:101D700010B505480178EF22114001700078FFF797
:101D80005FFFFFF785FF10BD10000020F8B5144677
:101D90000E460746002500F09BF9380187191048C8
:101DA000267801781022114301700078641CFFF737
:101DB00047FFFFF76DFF300900F09CF93007000F77
:101DC00000F098F96D1CEDB27819102803D10021AC
:101DD000012000F07DF920780028E0D1F8BD000056
:101DE000100000203EB5092228496846FEF79EFAF9
:101DF00002A8032226490130FEF798FA6846FFF749
:101E000065FF22490B2209316846FEF78FFA6846C2
:101E1000807A01090901684681721D48801E417857
:101E20006846C172FFF752FF184B00206C461A1823
:101E3000D17C127D0901120911432154401CC0B20A
:101E40000828F4D3E079124900090001E071204626
:101E500008300422C91C0446FEF768FA6846FFF7FA
:101E600035FF0A4908221B316846FEF75FFA6946CA
:101E7000C879042200090001C87105492046C91D1E
:101E8000FEF754FA6846FFF721FF3EBD100100201F
:101E9000FA2B000810B522210148FEF7A4FA10BD64
:101EA00011010020FEB506460D4614461046FEF709
:101EB00017FCEA001A23AA189B1A19270293BB1AC7
:101EC000009318239F1A15239B1A0193142301468C
:101ED0009A1A5C48330000F0D5FD08219C886C4FAD
:101EE00035220521EE001323AD195B1B2E2C0ED0DD
:101EF0002C2C0CD0C45CF1252C40534D695C0D0991
:101F00002C43C454835C1B071B0F090131E0C25CE6
:101F1000EE2422404C4C615C0A43C254FEBD2E2C80
:101F200006D02C2C04D0484A1A32525C01995AE04F
:101F3000835C9C08444BA4001A33595C09090C4388
:101F40008454FEBDEB001622EB18D21A2E2C01D0C1
:101F50002C2C09D1019BC35C5C083B4B64005B5C8F
:101F600019090C43019965E0835C10242340364C29
:101F70001DE00B438354FEBDEB001722EB18D21A71
:101F80002E2C0FD02C2C0DD0835C1C092E4B240141
:101F90001A33595C0B091C438454C25D1207120F9B
:101FA00009011DE0835CCF242340274C1A34615C77
:101FB000DFE72E2C0FD02C2C0DD0C25DF1231A4060
:101FC000214B595C0B091A43C255009A825C1207D7
:101FD000120F09011AE0C25DEE231A401A4B595C38
:101FE0000A43C255FEBD4254FEBD2E2C06D02C2CF9
:101FF00004D0154A1A32525C0299F4E7009A124B47
:10200000825C1A339208595C920009090A430099CC
:10201000E9E7EB001B22EB18D21A2E2C01D02C2C56
:10202000A2D1029BC35C5C08074B64005B5C19098E
:102030000C4302991B014454815CEF242140194355
:102040008154FEBD10010020052C0008F3B581B0BD
:10205000002425460198FEF747F9C6B202980228E7
:1020600023D8C10040181321091A1448081809215F
:10207000FEF7B9F96019B04218D2301B411B019824
:102080000F180720203F001BFA7FC0B20299FFF70C
:1020900009FFF87F2E2801D02C2802D16D1CEDB24B
:1020A00001E0641CE4B2072CE4D3FEBD0720001B52
:1020B000C0B220220299FFF7F5FEF2E710010020DE
:1020C000C0080249C00008707047000010010020DD
:1020D00010B5002802D0012808D103E0084680216D
:1020E000084301E0C020084300F0FCFC282000F079
:1020F00057FD10BD10B5144C217809090901217054
:1021000000072178000F084320702078FFF798FD22
:10211000FFF7BEFD20782021084320702078FFF7CC
:102120008FFDFFF7B5FD0A2000F03AFD2078DF2192
:10213000084020702078FFF783FDFFF7A9FD642099
:1021400000F02EFD10BD000010000020F0B587B09B
:1021500014216846FEF749F93248426B02210A43CE
:102160004263426B0A400592416B0426314341634E
:10217000416B31400591426B20210A434263426B1F
:102180000A400592416B012529434163406B0022BF
:102190002840059080212448FEF7E6FB0327BF0373
:1021A000002239462148FEF7DFFB002204212048A7
:1021B000FEF7DAFB87210520002209010007FEF760
:1021C000D3FB80200024009002946946019503947B
:1021D0001548FEF71BFB02946946144800970195C9
:1021E0000394FEF713FB029469461148009601958B
:1021F0000394FEF70BFB872000010090052002945A
:102200006946019503940007FEF700FB2803009040
:1022100005200194694602940007FEF7F7FA07B01B
:10222000F0BD000000100240000400500008005003
:102230000014005010B511480F490160FF2105310D
:10224000416000210722816012020161C260416188
:10225000C1610122016252024162826181620722F0
:10226000C262016308214163FFF752F8002801D0E0
:1022700072B6FEE710BD00000030014014000020DF
:1022800010B59CB0002419941A94179418941494BF
:1022900015941C210DA81694FEF7A7F83421684662
:1022A000FEF7A3F82F482E4901600F21846041609A
:1022B000046144612C498461C160FFF789FA0028F8
:1022C00001D072B6FEE701200003179017A9254838
:1022D000FFF7FEFA002801D072B6FEE72148FFF7AB
:1022E00021FC002801D072B6FEE71494159414A9BD
:1022F0001C481694FFF736FA002801D072B6FEE7A4
:1023000060200D90E120800013940E900F941094A3
:102310001194129400220DA91248FFF76FFB0028B8
:1023200001D072B6FEE701200094400305900194AD
:10233000029404940003039406940794099008946B
:102340000A940B9469460C940648FFF7B5F90028E7
:1023500001D072B6FEE70348FFF72AFB1CB010BDA0
:10236000002C014078000020E703000010B588B081
:1023700000240094019401211548029403940494CC
:1023800005948907069401600F218460416004610F
:10239000611E8461C160FFF71BFA002801D072B68C
:1023A000FEE701200003009069460948FFF790FA14
:1023B000002801D072B6FEE7049404A904480694EC
:1023C000FFF7D0F9002801D072B6FEE708B010BDC3
:1023D000C4000020FEE7704710B50248FEF71CFF5E
:1023E00010BD00001400002038B50446FEF7C2FA04
:1023F000024620684168A023994341606421204639
:1024000000F023F8002803D0206E20210843206626
:10241000A068002803D12068C1688068009001216D
:102420005D200155206E0028204602D0FEF7F2FE06
:1024300038BDFFF719F938BD10B5806A0021462272
:102440001152C187FEF7E6FE10BDF8B50F460B46E8
:1024500015460092032104460022C90200F03EF80E
:102460002026002812D13B460022802120460095DC
:1024700000F0A0F8002809D103213B4600224902C0
:102480002046009500F02AF8002803D0206E304343
:1024900020660320F8BD10B5816B02680988D16001
:1024A000816B891C8163C18F491EC187C18F00293F
:1024B00001D1FFF799FF10BD10B5816B0268097853
:1024C0001173816B491C8163C18F491EC187C18F04
:1024D000002901D1FFF788FF10BD0000FFB585B0CE
:1024E0000E460446002069460E9D17460871FEF709
:1024F00041FA411B0898451AFEF73CFA0390206800
:1025000023210C3002902A4800684843000D68439C
:1025100046E003204002864206D1002F04D10298F3
:1025200001786846017100790898401C39D0FEF79F
:1025300021FA0399401AA84205D2002D03D0009831
:1025400000282BD02BE020684168E02291434160B5
:102550006068C11FFD390CD10121A068C903884200
:1025600002D04911884204D1206801684022914379
:1025700001600120A16A4003814207D121680A68F5
:1025800082430A6021680A6802430A6001204034DD
:10259000607700202077032009B0F0BD0025401EA1
:1025A0000090206880683040B842B2D10020F3E744
:1025B0000C000020FFB581B01E4604460A9DFEF7C0
:1025C000D9F9401B351AFEF7D5F9074626480068A9
:1025D0004001000D684339E0701C38D0FEF7CAF99D
:1025E000C01BA84205D2002D03D0009800282BD094
:1025F0002BE020684168E022914341606068C11F80
:10260000FD390CD10121A068C903884202D04911CB
:10261000884204D120680168402291430160012072
:10262000A16A4003814207D121680A6882430A6097
:1026300021680A6802430A60012040346077002064
:102640002077032005B0F0BD0025401E00902068D3
:1026500081680298884305D0002103988142BBD14C
:102660000020EFE70121F8E70C000020704710B5CB
:10267000FEF786F910BD10B592B038216846FDF717
:10268000B4FE002401200E940F9410944002119483
:10269000FEF7DCF902200090C00103904020059075
:1026A000049407946846FEF7C1FB002801D072B677
:1026B000FEE707200E900F941094002111940EA8AD
:1026C000FEF7C2FA002801D072B6FEE712B010BDC4
:1026D00070470000F0B502681A4B0124A4071A4D98
:1026E000984203D0A04201D0A84203D17026B24341
:1026F0004E683243154E164F98420AD0A04208D079
:10270000A84206D0134CA04203D0B04201D0B84238
:1027100004D103242402A243CC6822438024A24390
:102720004C69224302608A68C2620A6882629842E7
:1027300003D0B04201D0B84201D10969016301213F
:102740004161F0BD002C0140000400400044014004
:10275000004801400020004010B5CB06DB0E0121EF
:10276000046A99408C430462016A9A4011430162F1
:1027700010BD30B58468FF252D021B021343AC4306
:102780000B432343836030BD8268034B1A400A43E6
:1027900007210A43826070478FFFCFFFF0B5026ABE
:1027A000520852000262056A43688269164C184E4C
:1027B000224092080C6892001443022295438A68D2
:1027C0002A43124DA84204D0B04202D0114FB84261
:1027D00006D10827BA43CF681743042297433A46E5
:1027E000A84204D0B04202D00A4DA84206D1032527
:1027F0002D02AB434D691D438B692B4343608461BC
:10280000496841630262F0BD8FFFFEFF002C01406A
:10281000004401400048014070B5026A10239A4309
:102820000262046A43688269164D2A4003252D021C
:10283000AA430D682D021543202294438A68120191
:102840002243114CA04208D11446CA688026B443E2
:10285000120122434024A24305E00C4CA04202D0C6
:102860000B4CA04208D10324A402A3434C69A4004A
:102870001C438B699B0023434360856149688163E6
:10288000026270BDFF8FFFFE002C0140004401403A
:102890000048014070B5026AFF2301339A43026287
:1028A000046A4368C269164D2A4092080D68920076
:1028B00015430122520294438A6812022243114CAA
:1028C000A04208D11446CA68C614B4431202224377
:1028D0000415A24305E00C4CA04202D00B4CA042D0
:1028E00008D103242403A3434C6924011C438B69AE
:1028F0001B0123434360C5614968C163026270BD27
:102900008FFFFEFF002C01400044014000480140C1
:1029100030B5026A01231B039A430262046A4568C8
:10292000C269124B1A4003231B029A430B681B0215
:1029300013430122520394438A68120322430C4C2E
:10294000A04205D00B4CA04202D00B4CA04206D1B5
:102950002C460125AD03AC434D69AD0125434560CF
:10296000C36149680164026230BD0000FF8FFFFE51
:10297000002C0140004401400048014070B5026A4B
:1029800001263604B2430262036A4268446D0E4D6A
:102990002C400D6825437400A3430C8924041C4378
:1029A0000A4B984205D00A4B984202D0094B9842F4
:1029B00003D14B69B2431B021A4342604565496823
:1029C0008165046270BD00008FFFFEFF002C014096
:1029D000004401400048014070B5026A01231B0514
:1029E0009A430262036A4268456D104C25400C68A8
:1029F00024022C4301256D05AB430D892D051D4394
:102A00000B4B984205D00B4B984202D00A4B984290
:102A100006D101261346B6044A69B34392021A430B
:102A2000426044654968C165056270BDFF8FFFFE65
:102A3000002C0140004401400048014030B5036AC9
:102A4000046A6408640004628469F025AC431201DE
:102A500022430A24A3430B438261036230BD30B595
:102A6000036A1024A34303628469036A0F252D03BC
:102A70001203AC432243A024A343090119438261FA
:102A8000016230BD30B47446641E2578641CAB42CC
:102A900000D21D46635D5B00E31830BC18470000A0
:102AA0008307FF22DB0E9A408907090E9940002810
:102AB00008DB830809489B001B18186890430843EB
:102AC000186070470007000F0838830804489B000F
:102AD0001B18D86990430843D861704700E400E0B0
:102AE00000ED00E010B50446FFF742F92009FFF7BA
:102AF00001FB2007000FFFF7FDFA10BD0EB5FDF733
:102B000047FFFFF7B8FDFFF721FBFFF793FBFFF748
:102B1000B7FBFFF72BFC00241848FEF7B1FE17485F
:102B200000214C38FFF726F8FFF7F4F8FFF7B2F969
:102B3000F820FFF7C5FAFFF755F9114D2146684611
:102B4000FDF7C2FD00216846FFF780FA01216846C3
:102B5000FFF77CFA02216846FFF778FAFFF742F99F
:102B600000216A460846FFF711F9012000F00AF833
:102B7000641CAC42E2D10024E0E70000C400002065
:102B80007F969800054900220B685A627D22D20088
:102B9000096850434A6A8242FCD37047C40000204F
:102BA000044900220B685A6209684A6A8242FCD3CF
:102BB00070470000C400002000000000000000007A
:102BC0000000000000000000000000000000000005
:102BD00000000000000000000100000002000000F2
:102BE00003000000040000000600000007000000D1
:102BF00008000000090000004201070080000000FA
:102C00000200000003AFA0CBE9E46D6FA8EFED6711
:102C1000A76DE50F63E34F004001EE07EC1110FADA
:102C200060D6F46CBCBEE0FEFC3E7ABC7C9A367684
:102C30009E000410EE16CE30200000005C2C000830
:102C4000000000201400000004010008702C00089F
:102C5000140000208407000020010008010000008B
:102C600004000000000000000024F4000000000048
:04000005080000C12E
:00000001FF
